{
  "contractName": "TodoList",
  "abi": [
    {
      "constant": true,
      "inputs": [
        {
          "name": "",
          "type": "uint256"
        }
      ],
      "name": "visits",
      "outputs": [
        {
          "name": "id",
          "type": "uint256"
        },
        {
          "name": "patientId",
          "type": "string"
        },
        {
          "name": "reasonForVisit",
          "type": "string"
        },
        {
          "name": "doctorsDiagnoses",
          "type": "string"
        },
        {
          "name": "bloodPressure",
          "type": "string"
        },
        {
          "name": "glucose",
          "type": "string"
        },
        {
          "name": "temperature",
          "type": "string"
        },
        {
          "name": "prescription",
          "type": "string"
        }
      ],
      "payable": false,
      "stateMutability": "view",
      "type": "function",
      "signature": "0x09c55a13"
    },
    {
      "constant": true,
      "inputs": [
        {
          "name": "",
          "type": "uint256"
        }
      ],
      "name": "tasks",
      "outputs": [
        {
          "name": "id",
          "type": "uint256"
        },
        {
          "name": "content",
          "type": "string"
        },
        {
          "name": "completed",
          "type": "bool"
        }
      ],
      "payable": false,
      "stateMutability": "view",
      "type": "function",
      "signature": "0x8d977672"
    },
    {
      "constant": true,
      "inputs": [
        {
          "name": "",
          "type": "uint256"
        }
      ],
      "name": "patients",
      "outputs": [
        {
          "name": "id",
          "type": "uint256"
        },
        {
          "name": "name",
          "type": "string"
        },
        {
          "name": "age",
          "type": "string"
        },
        {
          "name": "sex",
          "type": "string"
        },
        {
          "name": "weight",
          "type": "string"
        },
        {
          "name": "pulse",
          "type": "string"
        },
        {
          "name": "oxygen",
          "type": "string"
        }
      ],
      "payable": false,
      "stateMutability": "view",
      "type": "function",
      "signature": "0x93119a83"
    },
    {
      "constant": true,
      "inputs": [],
      "name": "patientCount",
      "outputs": [
        {
          "name": "",
          "type": "uint256"
        }
      ],
      "payable": false,
      "stateMutability": "view",
      "type": "function",
      "signature": "0xa0303c41"
    },
    {
      "constant": true,
      "inputs": [],
      "name": "taskCount",
      "outputs": [
        {
          "name": "",
          "type": "uint256"
        }
      ],
      "payable": false,
      "stateMutability": "view",
      "type": "function",
      "signature": "0xb6cb58a5"
    },
    {
      "constant": true,
      "inputs": [],
      "name": "visitCount",
      "outputs": [
        {
          "name": "",
          "type": "uint256"
        }
      ],
      "payable": false,
      "stateMutability": "view",
      "type": "function",
      "signature": "0xe0e4367e"
    },
    {
      "inputs": [],
      "payable": false,
      "stateMutability": "nonpayable",
      "type": "constructor",
      "signature": "constructor"
    },
    {
      "anonymous": false,
      "inputs": [
        {
          "indexed": false,
          "name": "id",
          "type": "uint256"
        },
        {
          "indexed": false,
          "name": "content",
          "type": "string"
        },
        {
          "indexed": false,
          "name": "completed",
          "type": "bool"
        }
      ],
      "name": "TaskCreated",
      "type": "event",
      "signature": "0x05d0fb833127fc08168556d0e7ca9554fc3f6bc843b3b7d2bf1c35aea6bab660"
    },
    {
      "anonymous": false,
      "inputs": [
        {
          "indexed": false,
          "name": "id",
          "type": "uint256"
        },
        {
          "indexed": false,
          "name": "completed",
          "type": "bool"
        }
      ],
      "name": "TaskCompleted",
      "type": "event",
      "signature": "0xe21fa966ca5cd02748c0752352d18c48165e61cb55b4c29cccf924b5a95fcff1"
    },
    {
      "anonymous": false,
      "inputs": [
        {
          "indexed": false,
          "name": "id",
          "type": "uint256"
        },
        {
          "indexed": false,
          "name": "name",
          "type": "string"
        },
        {
          "indexed": false,
          "name": "age",
          "type": "string"
        },
        {
          "indexed": false,
          "name": "sex",
          "type": "string"
        },
        {
          "indexed": false,
          "name": "weight",
          "type": "string"
        },
        {
          "indexed": false,
          "name": "pulse",
          "type": "string"
        },
        {
          "indexed": false,
          "name": "oxygen",
          "type": "string"
        }
      ],
      "name": "PatientCreated",
      "type": "event",
      "signature": "0xdb9c59ec2cf2c149952f1eb2dafa7b7d11ba129fce9a7d024b5f61b06685c8b1"
    },
    {
      "anonymous": false,
      "inputs": [
        {
          "indexed": false,
          "name": "id",
          "type": "uint256"
        },
        {
          "indexed": false,
          "name": "patientId",
          "type": "string"
        },
        {
          "indexed": false,
          "name": "reasonForVisit",
          "type": "string"
        },
        {
          "indexed": false,
          "name": "doctorsDiagnoses",
          "type": "string"
        },
        {
          "indexed": false,
          "name": "bloodPressure",
          "type": "string"
        },
        {
          "indexed": false,
          "name": "glucose",
          "type": "string"
        },
        {
          "indexed": false,
          "name": "temperature",
          "type": "string"
        },
        {
          "indexed": false,
          "name": "prescription",
          "type": "string"
        }
      ],
      "name": "VisitCreated",
      "type": "event",
      "signature": "0xc886ed26ceb3a86737378a71635bdbb8fb797bcf9622a0e57b2f0eabc54921cb"
    },
    {
      "constant": false,
      "inputs": [
        {
          "name": "_content",
          "type": "string"
        }
      ],
      "name": "createTask",
      "outputs": [],
      "payable": false,
      "stateMutability": "nonpayable",
      "type": "function",
      "signature": "0x111002aa"
    },
    {
      "constant": false,
      "inputs": [
        {
          "name": "_id",
          "type": "uint256"
        }
      ],
      "name": "toggleCompleted",
      "outputs": [],
      "payable": false,
      "stateMutability": "nonpayable",
      "type": "function",
      "signature": "0x455f5024"
    },
    {
      "constant": false,
      "inputs": [
        {
          "name": "_name",
          "type": "string"
        },
        {
          "name": "age",
          "type": "string"
        },
        {
          "name": "_sex",
          "type": "string"
        },
        {
          "name": "weight",
          "type": "string"
        },
        {
          "name": "pulse",
          "type": "string"
        },
        {
          "name": "oxygen",
          "type": "string"
        }
      ],
      "name": "createPatient",
      "outputs": [],
      "payable": false,
      "stateMutability": "nonpayable",
      "type": "function",
      "signature": "0x40a1b5ac"
    },
    {
      "constant": false,
      "inputs": [
        {
          "name": "patientId",
          "type": "string"
        },
        {
          "name": "_reasonForVisit",
          "type": "string"
        },
        {
          "name": "_doctorsDiagnoses",
          "type": "string"
        },
        {
          "name": "bloodPressure",
          "type": "string"
        },
        {
          "name": "glucose",
          "type": "string"
        },
        {
          "name": "temperature",
          "type": "string"
        },
        {
          "name": "_prescription",
          "type": "string"
        }
      ],
      "name": "createVisit",
      "outputs": [],
      "payable": false,
      "stateMutability": "nonpayable",
      "type": "function",
      "signature": "0xbb163fa1"
    }
  ],
  "bytecode": "0x608060405260008055600060015560006002553480156200001f57600080fd5b5060408051808201909152601c81527f436865636b206f75742064617070756e69766572736974792e636f6d00000000602082015262000068906401000000006200006e810204565b6200023d565b600080546001908101808355604080516060810182528281526020808201878152828401879052938652600381529190942084518155915180519293620000be9390850192919091019062000198565b5060408201518160020160006101000a81548160ff0219169083151502179055509050507f05d0fb833127fc08168556d0e7ca9554fc3f6bc843b3b7d2bf1c35aea6bab660600054826000604051808481526020018060200183151515158152602001828103825284818151815260200191508051906020019080838360005b83811015620001585781810151838201526020016200013e565b50505050905090810190601f168015620001865780820380516001836020036101000a031916815260200191505b5094505050505060405180910390a150565b828054600181600116156101000203166002900490600052602060002090601f016020900481019282601f10620001db57805160ff19168380011785556200020b565b828001600101855582156200020b579182015b828111156200020b578251825591602001919060010190620001ee565b50620002199291506200021d565b5090565b6200023a91905b8082111562000219576000815560010162000224565b90565b612323806200024d6000396000f3fe6080604052600436106100a35763ffffffff7c010000000000000000000000000000000000000000000000000000000060003504166309c55a1381146100a8578063111002aa146103b857806340a1b5ac1461046d578063455f5024146107c35780638d977672146107ed57806393119a83146108a1578063a0303c4114610b48578063b6cb58a514610b6f578063bb163fa114610b84578063e0e4367e14610f61575b600080fd5b3480156100b457600080fd5b506100d2600480360360208110156100cb57600080fd5b5035610f76565b604051808981526020018060200180602001806020018060200180602001806020018060200188810388528f818151815260200191508051906020019080838360005b8381101561012d578181015183820152602001610115565b50505050905090810190601f16801561015a5780820380516001836020036101000a031916815260200191505b5088810387528e818151815260200191508051906020019080838360005b83811015610190578181015183820152602001610178565b50505050905090810190601f1680156101bd5780820380516001836020036101000a031916815260200191505b5088810386528d5181528d516020918201918f019080838360005b838110156101f05781810151838201526020016101d8565b50505050905090810190601f16801561021d5780820380516001836020036101000a031916815260200191505b5088810385528c5181528c516020918201918e019080838360005b83811015610250578181015183820152602001610238565b50505050905090810190601f16801561027d5780820380516001836020036101000a031916815260200191505b5088810384528b5181528b516020918201918d019080838360005b838110156102b0578181015183820152602001610298565b50505050905090810190601f1680156102dd5780820380516001836020036101000a031916815260200191505b5088810383528a5181528a516020918201918c019080838360005b838110156103105781810151838201526020016102f8565b50505050905090810190601f16801561033d5780820380516001836020036101000a031916815260200191505b5088810382528951815289516020918201918b019080838360005b83811015610370578181015183820152602001610358565b50505050905090810190601f16801561039d5780820380516001836020036101000a031916815260200191505b509f5050505050505050505050505050505060405180910390f35b3480156103c457600080fd5b5061046b600480360360208110156103db57600080fd5b8101906020810181356401000000008111156103f657600080fd5b82018360208201111561040857600080fd5b8035906020019184600183028401116401000000008311171561042a57600080fd5b91908080601f01602080910402602001604051908101604052809392919081815260200183838082843760009201919091525092955061137f945050505050565b005b34801561047957600080fd5b5061046b600480360360c081101561049057600080fd5b8101906020810181356401000000008111156104ab57600080fd5b8201836020820111156104bd57600080fd5b803590602001918460018302840111640100000000831117156104df57600080fd5b91908080601f016020809104026020016040519081016040528093929190818152602001838380828437600092019190915250929594936020810193503591505064010000000081111561053257600080fd5b82018360208201111561054457600080fd5b8035906020019184600183028401116401000000008311171561056657600080fd5b91908080601f01602080910402602001604051908101604052809392919081815260200183838082843760009201919091525092959493602081019350359150506401000000008111156105b957600080fd5b8201836020820111156105cb57600080fd5b803590602001918460018302840111640100000000831117156105ed57600080fd5b91908080601f016020809104026020016040519081016040528093929190818152602001838380828437600092019190915250929594936020810193503591505064010000000081111561064057600080fd5b82018360208201111561065257600080fd5b8035906020019184600183028401116401000000008311171561067457600080fd5b91908080601f01602080910402602001604051908101604052809392919081815260200183838082843760009201919091525092959493602081019350359150506401000000008111156106c757600080fd5b8201836020820111156106d957600080fd5b803590602001918460018302840111640100000000831117156106fb57600080fd5b91908080601f016020809104026020016040519081016040528093929190818152602001838380828437600092019190915250929594936020810193503591505064010000000081111561074e57600080fd5b82018360208201111561076057600080fd5b8035906020019184600183028401116401000000008311171561078257600080fd5b91908080601f0160208091040260200160405190810160405280939291908181526020018383808284376000920191909152509295506114a4945050505050565b3480156107cf57600080fd5b5061046b600480360360208110156107e657600080fd5b503561184a565b3480156107f957600080fd5b506108176004803603602081101561081057600080fd5b50356119c3565b604051808481526020018060200183151515158152602001828103825284818151815260200191508051906020019080838360005b8381101561086457818101518382015260200161084c565b50505050905090810190601f1680156108915780820380516001836020036101000a031916815260200191505b5094505050505060405180910390f35b3480156108ad57600080fd5b506108cb600480360360208110156108c457600080fd5b5035611a73565b6040518088815260200180602001806020018060200180602001806020018060200187810387528d818151815260200191508051906020019080838360005b8381101561092257818101518382015260200161090a565b50505050905090810190601f16801561094f5780820380516001836020036101000a031916815260200191505b5087810386528c5181528c516020918201918e019080838360005b8381101561098257818101518382015260200161096a565b50505050905090810190601f1680156109af5780820380516001836020036101000a031916815260200191505b5087810385528b5181528b516020918201918d019080838360005b838110156109e25781810151838201526020016109ca565b50505050905090810190601f168015610a0f5780820380516001836020036101000a031916815260200191505b5087810384528a5181528a516020918201918c019080838360005b83811015610a42578181015183820152602001610a2a565b50505050905090810190601f168015610a6f5780820380516001836020036101000a031916815260200191505b5087810383528951815289516020918201918b019080838360005b83811015610aa2578181015183820152602001610a8a565b50505050905090810190601f168015610acf5780820380516001836020036101000a031916815260200191505b5087810382528851815288516020918201918a019080838360005b83811015610b02578181015183820152602001610aea565b50505050905090810190601f168015610b2f5780820380516001836020036101000a031916815260200191505b509d505050505050505050505050505060405180910390f35b348015610b5457600080fd5b50610b5d611dec565b60408051918252519081900360200190f35b348015610b7b57600080fd5b50610b5d611df2565b348015610b9057600080fd5b5061046b600480360360e0811015610ba757600080fd5b810190602081018135640100000000811115610bc257600080fd5b820183602082011115610bd457600080fd5b80359060200191846001830284011164010000000083111715610bf657600080fd5b91908080601f0160208091040260200160405190810160405280939291908181526020018383808284376000920191909152509295949360208101935035915050640100000000811115610c4957600080fd5b820183602082011115610c5b57600080fd5b80359060200191846001830284011164010000000083111715610c7d57600080fd5b91908080601f0160208091040260200160405190810160405280939291908181526020018383808284376000920191909152509295949360208101935035915050640100000000811115610cd057600080fd5b820183602082011115610ce257600080fd5b80359060200191846001830284011164010000000083111715610d0457600080fd5b91908080601f0160208091040260200160405190810160405280939291908181526020018383808284376000920191909152509295949360208101935035915050640100000000811115610d5757600080fd5b820183602082011115610d6957600080fd5b80359060200191846001830284011164010000000083111715610d8b57600080fd5b91908080601f0160208091040260200160405190810160405280939291908181526020018383808284376000920191909152509295949360208101935035915050640100000000811115610dde57600080fd5b820183602082011115610df057600080fd5b80359060200191846001830284011164010000000083111715610e1257600080fd5b91908080601f0160208091040260200160405190810160405280939291908181526020018383808284376000920191909152509295949360208101935035915050640100000000811115610e6557600080fd5b820183602082011115610e7757600080fd5b80359060200191846001830284011164010000000083111715610e9957600080fd5b91908080601f0160208091040260200160405190810160405280939291908181526020018383808284376000920191909152509295949360208101935035915050640100000000811115610eec57600080fd5b820183602082011115610efe57600080fd5b80359060200191846001830284011164010000000083111715610f2057600080fd5b91908080601f016020809104026020016040519081016040528093929190818152602001838380828437600092019190915250929550611df8945050505050565b348015610f6d57600080fd5b50610b5d612232565b6005602090815260009182526040918290208054600180830180548651600293821615610100026000190190911692909204601f8101869004860283018601909652858252919492939092908301828280156110135780601f10610fe857610100808354040283529160200191611013565b820191906000526020600020905b815481529060010190602001808311610ff657829003601f168201915b50505060028085018054604080516020601f60001961010060018716150201909416959095049283018590048502810185019091528181529596959450909250908301828280156110a55780601f1061107a576101008083540402835291602001916110a5565b820191906000526020600020905b81548152906001019060200180831161108857829003601f168201915b5050505060038301805460408051602060026001851615610100026000190190941693909304601f81018490048402820184019092528181529495949350908301828280156111355780601f1061110a57610100808354040283529160200191611135565b820191906000526020600020905b81548152906001019060200180831161111857829003601f168201915b5050505060048301805460408051602060026001851615610100026000190190941693909304601f81018490048402820184019092528181529495949350908301828280156111c55780601f1061119a576101008083540402835291602001916111c5565b820191906000526020600020905b8154815290600101906020018083116111a857829003601f168201915b5050505060058301805460408051602060026001851615610100026000190190941693909304601f81018490048402820184019092528181529495949350908301828280156112555780601f1061122a57610100808354040283529160200191611255565b820191906000526020600020905b81548152906001019060200180831161123857829003601f168201915b5050505060068301805460408051602060026001851615610100026000190190941693909304601f81018490048402820184019092528181529495949350908301828280156112e55780601f106112ba576101008083540402835291602001916112e5565b820191906000526020600020905b8154815290600101906020018083116112c857829003601f168201915b5050505060078301805460408051602060026001851615610100026000190190941693909304601f81018490048402820184019092528181529495949350908301828280156113755780601f1061134a57610100808354040283529160200191611375565b820191906000526020600020905b81548152906001019060200180831161135857829003601f168201915b5050505050905088565b6000805460019081018083556040805160608101825282815260208082018781528284018790529386526003815291909420845181559151805192936113cd93908501929190910190612238565b5060408201518160020160006101000a81548160ff0219169083151502179055509050507f05d0fb833127fc08168556d0e7ca9554fc3f6bc843b3b7d2bf1c35aea6bab660600054826000604051808481526020018060200183151515158152602001828103825284818151815260200191508051906020019080838360005b8381101561146557818101518382015260200161144d565b50505050905090810190601f1680156114925780820380516001836020036101000a031916815260200191505b5094505050505060405180910390a150565b6001805481018082556040805160e08101825282815260208082018b81528284018b9052606083018a90526080830189905260a0830188905260c083018790526000948552600482529290932081518155915180519194929361150c93850192910190612238565b5060408201518051611528916002840191602090910190612238565b5060608201518051611544916003840191602090910190612238565b5060808201518051611560916004840191602090910190612238565b5060a0820151805161157c916005840191602090910190612238565b5060c08201518051611598916006840191602090910190612238565b509050507fdb9c59ec2cf2c149952f1eb2dafa7b7d11ba129fce9a7d024b5f61b06685c8b16001548787878787876040518088815260200180602001806020018060200180602001806020018060200187810387528d818151815260200191508051906020019080838360005b8381101561161d578181015183820152602001611605565b50505050905090810190601f16801561164a5780820380516001836020036101000a031916815260200191505b5087810386528c5181528c516020918201918e019080838360005b8381101561167d578181015183820152602001611665565b50505050905090810190601f1680156116aa5780820380516001836020036101000a031916815260200191505b5087810385528b5181528b516020918201918d019080838360005b838110156116dd5781810151838201526020016116c5565b50505050905090810190601f16801561170a5780820380516001836020036101000a031916815260200191505b5087810384528a5181528a516020918201918c019080838360005b8381101561173d578181015183820152602001611725565b50505050905090810190601f16801561176a5780820380516001836020036101000a031916815260200191505b5087810383528951815289516020918201918b019080838360005b8381101561179d578181015183820152602001611785565b50505050905090810190601f1680156117ca5780820380516001836020036101000a031916815260200191505b5087810382528851815288516020918201918a019080838360005b838110156117fd5781810151838201526020016117e5565b50505050905090810190601f16801561182a5780820380516001836020036101000a031916815260200191505b509d505050505050505050505050505060405180910390a1505050505050565b6118526122b6565b600360008381526020019081526020016000206060604051908101604052908160008201548152602001600182018054600181600116156101000203166002900480601f0160208091040260200160405190810160405280929190818152602001828054600181600116156101000203166002900480156119145780601f106118e957610100808354040283529160200191611914565b820191906000526020600020905b8154815290600101906020018083116118f757829003601f168201915b50505091835250506002919091015460ff1615156020918201526040808301805115905260008581526003835220825181558282015180519394508493919261196592600185019290910190612238565b50604091820151600291909101805460ff1916911515919091179055818101518151848152901515602082015281517fe21fa966ca5cd02748c0752352d18c48165e61cb55b4c29cccf924b5a95fcff1929181900390910190a15050565b6003602090815260009182526040918290208054600180830180548651600293821615610100026000190190911692909204601f810186900486028301860190965285825291949293909290830182828015611a605780601f10611a3557610100808354040283529160200191611a60565b820191906000526020600020905b815481529060010190602001808311611a4357829003601f168201915b5050506002909301549192505060ff1683565b6004602090815260009182526040918290208054600180830180548651600293821615610100026000190190911692909204601f810186900486028301860190965285825291949293909290830182828015611b105780601f10611ae557610100808354040283529160200191611b10565b820191906000526020600020905b815481529060010190602001808311611af357829003601f168201915b50505060028085018054604080516020601f6000196101006001871615020190941695909504928301859004850281018501909152818152959695945090925090830182828015611ba25780601f10611b7757610100808354040283529160200191611ba2565b820191906000526020600020905b815481529060010190602001808311611b8557829003601f168201915b5050505060038301805460408051602060026001851615610100026000190190941693909304601f8101849004840282018401909252818152949594935090830182828015611c325780601f10611c0757610100808354040283529160200191611c32565b820191906000526020600020905b815481529060010190602001808311611c1557829003601f168201915b5050505060048301805460408051602060026001851615610100026000190190941693909304601f8101849004840282018401909252818152949594935090830182828015611cc25780601f10611c9757610100808354040283529160200191611cc2565b820191906000526020600020905b815481529060010190602001808311611ca557829003601f168201915b5050505060058301805460408051602060026001851615610100026000190190941693909304601f8101849004840282018401909252818152949594935090830182828015611d525780601f10611d2757610100808354040283529160200191611d52565b820191906000526020600020905b815481529060010190602001808311611d3557829003601f168201915b5050505060068301805460408051602060026001851615610100026000190190941693909304601f8101849004840282018401909252818152949594935090830182828015611de25780601f10611db757610100808354040283529160200191611de2565b820191906000526020600020905b815481529060010190602001808311611dc557829003601f168201915b5050505050905087565b60015481565b60005481565b60028054600190810191829055604080516101008101825283815260208082018c81528284018c9052606083018b9052608083018a905260a0830189905260c0830188905260e0830187905260009586526005825292909420815181559151805191949293611e6d9390850192910190612238565b5060408201518051611e89916002840191602090910190612238565b5060608201518051611ea5916003840191602090910190612238565b5060808201518051611ec1916004840191602090910190612238565b5060a08201518051611edd916005840191602090910190612238565b5060c08201518051611ef9916006840191602090910190612238565b5060e08201518051611f15916007840191602090910190612238565b509050507fc886ed26ceb3a86737378a71635bdbb8fb797bcf9622a0e57b2f0eabc54921cb60025488888888888888604051808981526020018060200180602001806020018060200180602001806020018060200188810388528f818151815260200191508051906020019080838360005b83811015611f9f578181015183820152602001611f87565b50505050905090810190601f168015611fcc5780820380516001836020036101000a031916815260200191505b5088810387528e818151815260200191508051906020019080838360005b83811015612002578181015183820152602001611fea565b50505050905090810190601f16801561202f5780820380516001836020036101000a031916815260200191505b5088810386528d5181528d516020918201918f019080838360005b8381101561206257818101518382015260200161204a565b50505050905090810190601f16801561208f5780820380516001836020036101000a031916815260200191505b5088810385528c5181528c516020918201918e019080838360005b838110156120c25781810151838201526020016120aa565b50505050905090810190601f1680156120ef5780820380516001836020036101000a031916815260200191505b5088810384528b5181528b516020918201918d019080838360005b8381101561212257818101518382015260200161210a565b50505050905090810190601f16801561214f5780820380516001836020036101000a031916815260200191505b5088810383528a5181528a516020918201918c019080838360005b8381101561218257818101518382015260200161216a565b50505050905090810190601f1680156121af5780820380516001836020036101000a031916815260200191505b5088810382528951815289516020918201918b019080838360005b838110156121e25781810151838201526020016121ca565b50505050905090810190601f16801561220f5780820380516001836020036101000a031916815260200191505b509f5050505050505050505050505050505060405180910390a150505050505050565b60025481565b828054600181600116156101000203166002900490600052602060002090601f016020900481019282601f1061227957805160ff19168380011785556122a6565b828001600101855582156122a6579182015b828111156122a657825182559160200191906001019061228b565b506122b29291506122da565b5090565b60606040519081016040528060008152602001606081526020016000151581525090565b6122f491905b808211156122b257600081556001016122e0565b9056fea165627a7a723058206a8d135fc4260aab5fd307326b7290e490b0ce130cee9daff2d64c125c65f9b60029",
  "source": "pragma solidity >=0.5.0;\n\ncontract TodoList {\n  uint public taskCount = 0;\n  uint public patientCount = 0;\n  uint public visitCount = 0;\n  struct Task {\n    uint id;\n    string content;\n    bool completed;\n  }\n\n  mapping(uint => Task) public tasks;\n\n  event TaskCreated(\n    uint id,\n    string content,\n    bool completed\n  );\n\n  event TaskCompleted(\n    uint id,\n    bool completed\n  );\n\n  constructor() public {\n    createTask(\"Check out dappuniversity.com\");\n  }\n\n  function createTask(string memory _content) public {\n    taskCount ++;\n    tasks[taskCount] = Task(taskCount, _content, false);\n    emit TaskCreated(taskCount, _content, false);\n  }\n\n  function toggleCompleted(uint _id) public {\n    Task memory _task = tasks[_id];\n    _task.completed = !_task.completed;\n    tasks[_id] = _task;\n    emit TaskCompleted(_id, _task.completed);\n  }\n\n    struct Patient{\n        uint id;\n        string name;\n        string age;\n        string sex;\n        string weight;\n        string pulse;\n        string oxygen;\n    }\n\n    struct Visit{\n        uint id;\n        string patientId;\n        string reasonForVisit;\n        string doctorsDiagnoses;\n        string bloodPressure;\n        string glucose;\n        string temperature;\n        string prescription;\n    }\n \n    mapping(uint => Patient) public patients;\n    mapping(uint => Visit) public visits;\n\n    event PatientCreated(\n        uint id, \n        string name, \n        string age, \n        string sex, \n        string weight, \n        string pulse, \n        string oxygen\n    );\n\n    event VisitCreated(\n        uint id,\n        string patientId,\n        string reasonForVisit,\n        string doctorsDiagnoses,\n        string bloodPressure,\n        string glucose,\n        string temperature,\n        string prescription\n    );\n\n    function createPatient(string memory _name, string memory age, string memory _sex, string memory weight,string memory pulse, string memory oxygen ) public {\n        patientCount ++;\n        patients[patientCount] = Patient(patientCount, _name, age, _sex, weight, pulse, oxygen);\n        emit PatientCreated(patientCount, _name, age, _sex, weight, pulse, oxygen);\n    }\n\n    function createVisit(string memory patientId, string memory _reasonForVisit, string memory _doctorsDiagnoses, string memory bloodPressure,\n        string memory glucose, string memory temperature, string memory _prescription ) public {\n        visitCount ++;\n        visits[visitCount] = Visit(visitCount, patientId, _reasonForVisit, _doctorsDiagnoses, bloodPressure, glucose, temperature,\n        _prescription);\n        emit VisitCreated(visitCount, patientId, _reasonForVisit, _doctorsDiagnoses, bloodPressure, glucose, temperature,\n        _prescription);\n    }\n\n}",
  "sourcePath": "/Users/leqaajamal/Desktop/Semester 10/Computer and Network Security/project/eth-project/contracts/TodoList.sol",
  "compiler": {
    "name": "solc",
    "version": "0.5.0+commit.1d4f565a.Emscripten.clang"
  },
  "schemaVersion": "3.0.1",
  "updatedAt": "2022-06-09T17:19:00.339Z",
  "devdoc": {
    "methods": {}
  },
  "userdoc": {
    "methods": {}
  }
}