{
  "contractName": "TodoList",
  "abi": [
    {
      "constant": true,
      "inputs": [
        {
          "name": "",
          "type": "uint256"
        }
      ],
      "name": "visits",
      "outputs": [
        {
          "name": "id",
          "type": "uint256"
        },
        {
          "name": "reasonForVisit",
          "type": "string"
        },
        {
          "name": "doctorsDiagnoses",
          "type": "string"
        },
        {
          "name": "bloodPressure",
          "type": "int256"
        },
        {
          "name": "glucose",
          "type": "int256"
        },
        {
          "name": "temperature",
          "type": "int256"
        },
        {
          "name": "prescription",
          "type": "string"
        }
      ],
      "payable": false,
      "stateMutability": "view",
      "type": "function",
      "signature": "0x09c55a13"
    },
    {
      "constant": true,
      "inputs": [
        {
          "name": "",
          "type": "uint256"
        }
      ],
      "name": "tasks",
      "outputs": [
        {
          "name": "id",
          "type": "uint256"
        },
        {
          "name": "content",
          "type": "string"
        },
        {
          "name": "completed",
          "type": "bool"
        }
      ],
      "payable": false,
      "stateMutability": "view",
      "type": "function",
      "signature": "0x8d977672"
    },
    {
      "constant": true,
      "inputs": [
        {
          "name": "",
          "type": "uint256"
        }
      ],
      "name": "patients",
      "outputs": [
        {
          "name": "id",
          "type": "uint256"
        },
        {
          "name": "name",
          "type": "string"
        },
        {
          "name": "age",
          "type": "int256"
        },
        {
          "name": "sex",
          "type": "string"
        },
        {
          "name": "weight",
          "type": "int256"
        },
        {
          "name": "pulse",
          "type": "int256"
        },
        {
          "name": "oxygen",
          "type": "int256"
        }
      ],
      "payable": false,
      "stateMutability": "view",
      "type": "function",
      "signature": "0x93119a83"
    },
    {
      "constant": true,
      "inputs": [],
      "name": "patientCount",
      "outputs": [
        {
          "name": "",
          "type": "uint256"
        }
      ],
      "payable": false,
      "stateMutability": "view",
      "type": "function",
      "signature": "0xa0303c41"
    },
    {
      "constant": true,
      "inputs": [],
      "name": "taskCount",
      "outputs": [
        {
          "name": "",
          "type": "uint256"
        }
      ],
      "payable": false,
      "stateMutability": "view",
      "type": "function",
      "signature": "0xb6cb58a5"
    },
    {
      "constant": true,
      "inputs": [],
      "name": "visitCount",
      "outputs": [
        {
          "name": "",
          "type": "uint256"
        }
      ],
      "payable": false,
      "stateMutability": "view",
      "type": "function",
      "signature": "0xe0e4367e"
    },
    {
      "inputs": [],
      "payable": false,
      "stateMutability": "nonpayable",
      "type": "constructor",
      "signature": "constructor"
    },
    {
      "anonymous": false,
      "inputs": [
        {
          "indexed": false,
          "name": "id",
          "type": "uint256"
        },
        {
          "indexed": false,
          "name": "content",
          "type": "string"
        },
        {
          "indexed": false,
          "name": "completed",
          "type": "bool"
        }
      ],
      "name": "TaskCreated",
      "type": "event",
      "signature": "0x05d0fb833127fc08168556d0e7ca9554fc3f6bc843b3b7d2bf1c35aea6bab660"
    },
    {
      "anonymous": false,
      "inputs": [
        {
          "indexed": false,
          "name": "id",
          "type": "uint256"
        },
        {
          "indexed": false,
          "name": "completed",
          "type": "bool"
        }
      ],
      "name": "TaskCompleted",
      "type": "event",
      "signature": "0xe21fa966ca5cd02748c0752352d18c48165e61cb55b4c29cccf924b5a95fcff1"
    },
    {
      "anonymous": false,
      "inputs": [
        {
          "indexed": false,
          "name": "id",
          "type": "uint256"
        },
        {
          "indexed": false,
          "name": "name",
          "type": "string"
        },
        {
          "indexed": false,
          "name": "age",
          "type": "int256"
        },
        {
          "indexed": false,
          "name": "sex",
          "type": "string"
        },
        {
          "indexed": false,
          "name": "weight",
          "type": "int256"
        },
        {
          "indexed": false,
          "name": "pulse",
          "type": "int256"
        },
        {
          "indexed": false,
          "name": "oxygen",
          "type": "int256"
        }
      ],
      "name": "PatientCreated",
      "type": "event",
      "signature": "0x0d5c9a3fe69ae7132d07abd6579f048fe8367eb792042a5d2f564ad2f883d822"
    },
    {
      "anonymous": false,
      "inputs": [
        {
          "indexed": false,
          "name": "id",
          "type": "uint256"
        },
        {
          "indexed": false,
          "name": "reasonForVisit",
          "type": "string"
        },
        {
          "indexed": false,
          "name": "doctorsDiagnoses",
          "type": "string"
        },
        {
          "indexed": false,
          "name": "bloodPressure",
          "type": "int256"
        },
        {
          "indexed": false,
          "name": "glucose",
          "type": "int256"
        },
        {
          "indexed": false,
          "name": "temperature",
          "type": "int256"
        },
        {
          "indexed": false,
          "name": "prescription",
          "type": "string"
        }
      ],
      "name": "VisitCreated",
      "type": "event",
      "signature": "0x32bd9d09e3fe3e49f5f538802d3959caf367ae2b42e587d9173a7c1696b860bc"
    },
    {
      "constant": false,
      "inputs": [
        {
          "name": "_content",
          "type": "string"
        }
      ],
      "name": "createTask",
      "outputs": [],
      "payable": false,
      "stateMutability": "nonpayable",
      "type": "function",
      "signature": "0x111002aa"
    },
    {
      "constant": false,
      "inputs": [
        {
          "name": "_id",
          "type": "uint256"
        }
      ],
      "name": "toggleCompleted",
      "outputs": [],
      "payable": false,
      "stateMutability": "nonpayable",
      "type": "function",
      "signature": "0x455f5024"
    },
    {
      "constant": false,
      "inputs": [
        {
          "name": "_name",
          "type": "string"
        },
        {
          "name": "age",
          "type": "int256"
        },
        {
          "name": "_sex",
          "type": "string"
        },
        {
          "name": "weight",
          "type": "int256"
        },
        {
          "name": "pulse",
          "type": "int256"
        },
        {
          "name": "oxygen",
          "type": "int256"
        }
      ],
      "name": "createPatient",
      "outputs": [],
      "payable": false,
      "stateMutability": "nonpayable",
      "type": "function",
      "signature": "0x787a9e0d"
    },
    {
      "constant": false,
      "inputs": [
        {
          "name": "_reasonForVisit",
          "type": "string"
        },
        {
          "name": "_doctorsDiagnoses",
          "type": "string"
        },
        {
          "name": "bloodPressure",
          "type": "int256"
        },
        {
          "name": "glucose",
          "type": "int256"
        },
        {
          "name": "temperature",
          "type": "int256"
        },
        {
          "name": "_prescription",
          "type": "string"
        }
      ],
      "name": "createVisit",
      "outputs": [],
      "payable": false,
      "stateMutability": "nonpayable",
      "type": "function",
      "signature": "0x96d6fac9"
    }
  ],
  "bytecode": "0x608060405260008055600060015560006002553480156200001f57600080fd5b5060408051808201909152601c81527f436865636b206f75742064617070756e69766572736974792e636f6d00000000602082015262000068906401000000006200006e810204565b6200023d565b600080546001908101808355604080516060810182528281526020808201878152828401879052938652600381529190942084518155915180519293620000be9390850192919091019062000198565b5060408201518160020160006101000a81548160ff0219169083151502179055509050507f05d0fb833127fc08168556d0e7ca9554fc3f6bc843b3b7d2bf1c35aea6bab660600054826000604051808481526020018060200183151515158152602001828103825284818151815260200191508051906020019080838360005b83811015620001585781810151838201526020016200013e565b50505050905090810190601f168015620001865780820380516001836020036101000a031916815260200191505b5094505050505060405180910390a150565b828054600181600116156101000203166002900490600052602060002090601f016020900481019282601f10620001db57805160ff19168380011785556200020b565b828001600101855582156200020b579182015b828111156200020b578251825591602001919060010190620001ee565b50620002199291506200021d565b5090565b6200023a91905b8082111562000219576000815560010162000224565b90565b611415806200024d6000396000f3fe6080604052600436106100a35763ffffffff7c010000000000000000000000000000000000000000000000000000000060003504166309c55a1381146100a8578063111002aa14610232578063455f5024146102e7578063787a9e0d146103115780638d9776721461045e57806393119a831461051257806396d6fac91461063d578063a0303c4114610810578063b6cb58a514610837578063e0e4367e1461084c575b600080fd5b3480156100b457600080fd5b506100d2600480360360208110156100cb57600080fd5b5035610861565b6040518088815260200180602001806020018781526020018681526020018581526020018060200184810384528a818151815260200191508051906020019080838360005b8381101561012f578181015183820152602001610117565b50505050905090810190601f16801561015c5780820380516001836020036101000a031916815260200191505b5084810383528951815289516020918201918b019080838360005b8381101561018f578181015183820152602001610177565b50505050905090810190601f1680156101bc5780820380516001836020036101000a031916815260200191505b50848103825285518152855160209182019187019080838360005b838110156101ef5781810151838201526020016101d7565b50505050905090810190601f16801561021c5780820380516001836020036101000a031916815260200191505b509a505050505050505050505060405180910390f35b34801561023e57600080fd5b506102e56004803603602081101561025557600080fd5b81019060208101813564010000000081111561027057600080fd5b82018360208201111561028257600080fd5b803590602001918460018302840111640100000000831117156102a457600080fd5b91908080601f016020809104026020016040519081016040528093929190818152602001838380828437600092019190915250929550610a3f945050505050565b005b3480156102f357600080fd5b506102e56004803603602081101561030a57600080fd5b5035610b64565b34801561031d57600080fd5b506102e5600480360360c081101561033457600080fd5b81019060208101813564010000000081111561034f57600080fd5b82018360208201111561036157600080fd5b8035906020019184600183028401116401000000008311171561038357600080fd5b91908080601f016020809104026020016040519081016040528093929190818152602001838380828437600092019190915250929584359590949093506040810192506020013590506401000000008111156103de57600080fd5b8201836020820111156103f057600080fd5b8035906020019184600183028401116401000000008311171561041257600080fd5b91908080601f0160208091040260200160405190810160405280939291908181526020018383808284376000920191909152509295505082359350505060208101359060400135610cdd565b34801561046a57600080fd5b506104886004803603602081101561048157600080fd5b5035610ebf565b604051808481526020018060200183151515158152602001828103825284818151815260200191508051906020019080838360005b838110156104d55781810151838201526020016104bd565b50505050905090810190601f1680156105025780820380516001836020036101000a031916815260200191505b5094505050505060405180910390f35b34801561051e57600080fd5b5061053c6004803603602081101561053557600080fd5b5035610f6f565b604051808881526020018060200187815260200180602001868152602001858152602001848152602001838103835289818151815260200191508051906020019080838360005b8381101561059b578181015183820152602001610583565b50505050905090810190601f1680156105c85780820380516001836020036101000a031916815260200191505b50838103825287518152875160209182019189019080838360005b838110156105fb5781810151838201526020016105e3565b50505050905090810190601f1680156106285780820380516001836020036101000a031916815260200191505b50995050505050505050505060405180910390f35b34801561064957600080fd5b506102e5600480360360c081101561066057600080fd5b81019060208101813564010000000081111561067b57600080fd5b82018360208201111561068d57600080fd5b803590602001918460018302840111640100000000831117156106af57600080fd5b91908080601f016020809104026020016040519081016040528093929190818152602001838380828437600092019190915250929594936020810193503591505064010000000081111561070257600080fd5b82018360208201111561071457600080fd5b8035906020019184600183028401116401000000008311171561073657600080fd5b91908080601f016020809104026020016040519081016040528093929190818152602001838380828437600092019190915250929584359560208601359560408101359550919350915060808101906060013564010000000081111561079b57600080fd5b8201836020820111156107ad57600080fd5b803590602001918460018302840111640100000000831117156107cf57600080fd5b91908080601f0160208091040260200160405190810160405280939291908181526020018383808284376000920191909152509295506110c0945050505050565b34801561081c57600080fd5b50610825611318565b60408051918252519081900360200190f35b34801561084357600080fd5b5061082561131e565b34801561085857600080fd5b50610825611324565b6005602090815260009182526040918290208054600180830180548651600293821615610100026000190190911692909204601f8101869004860283018601909652858252919492939092908301828280156108fe5780601f106108d3576101008083540402835291602001916108fe565b820191906000526020600020905b8154815290600101906020018083116108e157829003601f168201915b50505060028085018054604080516020601f60001961010060018716150201909416959095049283018590048502810185019091528181529596959450909250908301828280156109905780601f1061096557610100808354040283529160200191610990565b820191906000526020600020905b81548152906001019060200180831161097357829003601f168201915b505050600384015460048501546005860154600687018054604080516020601f60026000196101006001881615020190951694909404938401819004810282018101909252828152989995989497509295509091830182828015610a355780601f10610a0a57610100808354040283529160200191610a35565b820191906000526020600020905b815481529060010190602001808311610a1857829003601f168201915b5050505050905087565b600080546001908101808355604080516060810182528281526020808201878152828401879052938652600381529190942084518155915180519293610a8d9390850192919091019061132a565b5060408201518160020160006101000a81548160ff0219169083151502179055509050507f05d0fb833127fc08168556d0e7ca9554fc3f6bc843b3b7d2bf1c35aea6bab660600054826000604051808481526020018060200183151515158152602001828103825284818151815260200191508051906020019080838360005b83811015610b25578181015183820152602001610b0d565b50505050905090810190601f168015610b525780820380516001836020036101000a031916815260200191505b5094505050505060405180910390a150565b610b6c6113a8565b600360008381526020019081526020016000206060604051908101604052908160008201548152602001600182018054600181600116156101000203166002900480601f016020809104026020016040519081016040528092919081815260200182805460018160011615610100020316600290048015610c2e5780601f10610c0357610100808354040283529160200191610c2e565b820191906000526020600020905b815481529060010190602001808311610c1157829003601f168201915b50505091835250506002919091015460ff16151560209182015260408083018051159052600085815260038352208251815582820151805193945084939192610c7f9260018501929091019061132a565b50604091820151600291909101805460ff1916911515919091179055818101518151848152901515602082015281517fe21fa966ca5cd02748c0752352d18c48165e61cb55b4c29cccf924b5a95fcff1929181900390910190a15050565b6001805481018082556040805160e08101825282815260208082018b81528284018b9052606083018a90526080830189905260a0830188905260c0830187905260009485526004825292909320815181559151805191949293610d459385019291019061132a565b506040820151600282015560608201518051610d6b91600384019160209091019061132a565b506080820151816004015560a0820151816005015560c082015181600601559050507f0d5c9a3fe69ae7132d07abd6579f048fe8367eb792042a5d2f564ad2f883d822600154878787878787604051808881526020018060200187815260200180602001868152602001858152602001848152602001838103835289818151815260200191508051906020019080838360005b83811015610e16578181015183820152602001610dfe565b50505050905090810190601f168015610e435780820380516001836020036101000a031916815260200191505b50838103825287518152875160209182019189019080838360005b83811015610e76578181015183820152602001610e5e565b50505050905090810190601f168015610ea35780820380516001836020036101000a031916815260200191505b50995050505050505050505060405180910390a1505050505050565b6003602090815260009182526040918290208054600180830180548651600293821615610100026000190190911692909204601f810186900486028301860190965285825291949293909290830182828015610f5c5780601f10610f3157610100808354040283529160200191610f5c565b820191906000526020600020905b815481529060010190602001808311610f3f57829003601f168201915b5050506002909301549192505060ff1683565b6004602090815260009182526040918290208054600180830180548651600293821615610100026000190190911692909204601f81018690048602830186019096528582529194929390929083018282801561100c5780601f10610fe15761010080835404028352916020019161100c565b820191906000526020600020905b815481529060010190602001808311610fef57829003601f168201915b505050506002838101546003850180546040805160206001841615610100026000190190931695909504601f8101839004830286018301909152808552959692959294509091908301828280156110a45780601f10611079576101008083540402835291602001916110a4565b820191906000526020600020905b81548152906001019060200180831161108757829003601f168201915b5050505050908060040154908060050154908060060154905087565b600280546001908101918290556040805160e08101825283815260208082018b81528284018b9052606083018a90526080830189905260a0830188905260c083018790526000958652600582529290942081518155915180519194929361112d939085019291019061132a565b506040820151805161114991600284019160209091019061132a565b50606082015160038201556080820151600482015560a0820151600582015560c0820151805161118391600684019160209091019061132a565b509050507f32bd9d09e3fe3e49f5f538802d3959caf367ae2b42e587d9173a7c1696b860bc6002548787878787876040518088815260200180602001806020018781526020018681526020018581526020018060200184810384528a818151815260200191508051906020019080838360005b8381101561120e5781810151838201526020016111f6565b50505050905090810190601f16801561123b5780820380516001836020036101000a031916815260200191505b5084810383528951815289516020918201918b019080838360005b8381101561126e578181015183820152602001611256565b50505050905090810190601f16801561129b5780820380516001836020036101000a031916815260200191505b50848103825285518152855160209182019187019080838360005b838110156112ce5781810151838201526020016112b6565b50505050905090810190601f1680156112fb5780820380516001836020036101000a031916815260200191505b509a505050505050505050505060405180910390a1505050505050565b60015481565b60005481565b60025481565b828054600181600116156101000203166002900490600052602060002090601f016020900481019282601f1061136b57805160ff1916838001178555611398565b82800160010185558215611398579182015b8281111561139857825182559160200191906001019061137d565b506113a49291506113cc565b5090565b60606040519081016040528060008152602001606081526020016000151581525090565b6113e691905b808211156113a457600081556001016113d2565b9056fea165627a7a72305820706a573eadb8f3b42f501b2af3d4c58a543b6aa62d693e6e5d480a00f8ee0be00029",
  "source": "pragma solidity >=0.5.0;\n\ncontract TodoList {\n  uint public taskCount = 0;\n  uint public patientCount = 0;\n  uint public visitCount = 0;\n  struct Task {\n    uint id;\n    string content;\n    bool completed;\n  }\n\n  mapping(uint => Task) public tasks;\n\n  event TaskCreated(\n    uint id,\n    string content,\n    bool completed\n  );\n\n  event TaskCompleted(\n    uint id,\n    bool completed\n  );\n\n  constructor() public {\n    createTask(\"Check out dappuniversity.com\");\n  }\n\n  function createTask(string memory _content) public {\n    taskCount ++;\n    tasks[taskCount] = Task(taskCount, _content, false);\n    emit TaskCreated(taskCount, _content, false);\n  }\n\n  function toggleCompleted(uint _id) public {\n    Task memory _task = tasks[_id];\n    _task.completed = !_task.completed;\n    tasks[_id] = _task;\n    emit TaskCompleted(_id, _task.completed);\n  }\n\n    struct Patient{\n        uint id;\n        string name;\n        int age;\n        string sex;\n        int weight;\n        int pulse;\n        int oxygen;\n    }\n\n    struct Visit{\n        uint id;\n        string reasonForVisit;\n        string doctorsDiagnoses;\n        int bloodPressure;\n        int glucose;\n        int temperature;\n        string prescription;\n    }\n \n    mapping(uint => Patient) public patients;\n    mapping(uint => Visit) public visits;\n\n    event PatientCreated(\n        uint id, \n        string name, \n        int age, \n        string sex, \n        int weight, \n        int pulse, \n        int oxygen\n    );\n\n    event VisitCreated(\n        uint id,\n        string reasonForVisit,\n        string doctorsDiagnoses,\n        int bloodPressure,\n        int glucose,\n        int temperature,\n        string prescription\n    );\n\n    function createPatient(string memory _name, int age, string memory _sex, int weight,int pulse, int oxygen ) public {\n        patientCount ++;\n        patients[patientCount] = Patient(patientCount, _name, age, _sex, weight, pulse, oxygen);\n        emit PatientCreated(patientCount, _name, age, _sex, weight, pulse, oxygen);\n    }\n\n    function createVisit(string memory _reasonForVisit, string memory _doctorsDiagnoses, int bloodPressure,\n        int glucose, int temperature, string memory _prescription ) public {\n        visitCount ++;\n        visits[visitCount] = Visit(visitCount, _reasonForVisit, _doctorsDiagnoses, bloodPressure, glucose, temperature,\n        _prescription);\n        emit VisitCreated(visitCount, _reasonForVisit, _doctorsDiagnoses, bloodPressure, glucose, temperature,\n        _prescription);\n    }\n\n}",
  "sourcePath": "/Users/leqaajamal/Desktop/Semester 10/Computer and Network Security/project/eth-project/contracts/TodoList.sol",
  "compiler": {
    "name": "solc",
    "version": "0.5.0+commit.1d4f565a.Emscripten.clang"
  },
  "schemaVersion": "3.0.1",
  "updatedAt": "2022-06-06T21:08:19.698Z",
  "devdoc": {
    "methods": {}
  },
  "userdoc": {
    "methods": {}
  }
}